:020000041000EA
:1000000000B5324B212058609868022188439860DF
:10001000D860186158612E4B002199600221596106
:100020000121F02299502B49196001219960352056
:1000300000F044F80222904214D00621196600F024
:1000400034F8196E01211966002018661A6600F04E
:100050002CF8196E196E196E052000F02FF8012189
:100060000842F9D1002199601B49196000215960AB
:100070001A491B48016001219960EB211966A021F2
:10008000196600F012F800219960164914480160C1
:100090000121996001BC002800D000471248134993
:1000A000086003C880F30888084703B5996A0420EC
:1000B0000142FBD001200142F8D103BD02B5186610
:1000C0001866FFF7F2FF186E186E02BD00000240BE
:1000D000000000180000070000035F00212200005C
:1000E000F4000018222000A00001001008ED00E03C
:1000F00000000000000000000000000074B24E7A12
:1001000000200420F7010010CB010010CD010010E9
:10011000C9010010C9010010C9010010C901001077
:10012000C9010010C9010010C9010010CF01001061
:10013000C9010010C9010010D1010010D301001045
:10014000C1010010C1010010C1010010C101001067
:10015000C1010010C1010010C1010010C101001057
:10016000C1010010C1010010C1010010C101001047
:10017000C1010010C1010010C1010010C101001037
:10018000C1010010C1010010C1010010C101001027
:10019000C1010010C1010010C1010010C101001017
:1001A000C1010010C1010010C1010010C101001007
:1001B000C1010010C1010010C1010010C1010010F7
:1001C000EFF30580103800BE00BE00BE00BE00BECA
:1001D00000BE00BEF2EB887188D90010ACD90010C7
:1001E0003802001090A31AE71E481F49086006C88D
:1001F00081F3088810471D480068002801D019487D
:10020000F3E70DA40ECC002902D000F012F8F9E7B4
:100210001749184A002000E001C19142FCD116495B
:100220008847164988471649884700BEFDE701C937
:1002300001C29A42FBD37047ACD90010C000002025
:10024000201200200CEB001000000420000004200D
:100250000CEB00100010042000100420000000002F
:10026000704700000000000008ED00E0000000D032
:1002700020120020802B0220D13900106D060010C2
:1002800093390010F8B5C04606480749091A8B1083
:10029000C90FC91810B5491003D0044B002B00D06A
:1002A000984710BD201200202012002000000000FE
:1002B000054B10B5002B03D00449054800E000BFF2
:1002C000FFF7E2FF10BDC046000000003825002007
:1002D000B0AD001010B50FE0154A1070002B06D01D
:1002E000144B1B78002B02D1134B01221A70114BB7
:1002F00019700A2008F080FCD0231B0659680422DC
:100300000A401000411E8841C0B25B688021C903C9
:100310000B4019004C1EA141C9B2002ADCD0044A8E
:100320001278002AD8D1054A01241470D4E7C046B7
:10033000742B0220762B0220772B0220752B0220B3
:1003400070B5050003782F2B13D00024242C0ED871
:10035000094BE2009B18596828000AF071FA00283E
:1003600001D00134F2E7044BE400E05C70BD3F20B3
:10037000FCE72020FAE7C04634CC0010F0B5C646B2
:1003800000B58EB00A22002104A802F0B7F909F0E6
:10039000B9FD00280AD19E4803F086FC09F0C3FE8F
:1003A000002806D09B4803F0AFFC02E09A4803F017
:1003B0007BFC0024B5E001321A70984B00221A80B1
:1003C0009748802464002200002102F097F99548A4
:1003D0002200002102F092F90A22002104A802F072
:1003E0008DF9914803F060FC904803F05DFC904863
:1003F00003F05AFC8F4803F057FC00240CE0012066
:1004000009F0C0FC642008F0F7FB002009F0BAFCFA
:10041000642008F0F1FB0134022CF0DD2C008FE0A9
:10042000002C13D004A800230355FFF789FF7B4B52
:100430001B88FE2B04D8794A591C1180784AD05465
:100440000A22002104A802F059F900247A4D02235F
:100450002B70724B1B88724E00229046F254774BE1
:100460001B88704F0A32FA54754803F01DFC75481A
:10047000390003F049FC7448310003F045FC73482F
:1004800003F012FCFA21C8208900800009F0E2FC88
:1004900043462B706E4803F007FC51E06D4B002281
:1004A0001A70002C54D004A800230355FFF748FF0E
:1004B0005A4B1B88FE2B1DD9604E3588594B9846E8
:1004C000E81804AF2200390002F01EF963199BB24C
:1004D00033805A1C328020224146CA54163A0021E9
:1004E000380002F00BF9C8206421400009F0B2FC8A
:1004F00000242DE0494A591C1180494AD054564BDA
:1005000004AA0100180003F0FFFBD5E75349281C9B
:1005100002F074F8002801D0082C55D9322008F0D8
:100520006BFB4F4B1B78002B0AD04D4B00221A70EF
:10053000414B1D78002D00D13DE7012D00D16FE723
:10054000444B1B78002B03D03B4B1B78012BA5D0D1
:10055000394B1B78012BE1D107AB029308AB019318
:1005600009AB00930AAB0BAA0CA90DA809F0ECFD8E
:100570000028D3D10C9D3B49281C02F045F80028E7
:10058000C4D0082CC2D8651CEDB204AB2E221A557B
:100590002E2003F07BFB344B1B68986809F040FF6A
:1005A000C820C821800009F055FC012009F0EAFBB1
:1005B000C82008F021FB002009F0E4FB9620400051
:1005C00008F01AFB2C00A9E7651CEDB204AB2D2244
:1005D0001A552D2003F05AFB234B1B68986809F02D
:1005E0001FFF9624A400C8202100800009F032FCDF
:1005F000012009F0C7FB200008F0FEFA002009F0F6
:10060000C1FB9620400008F0F7FA2C0086E7C046B0
:10061000B0AD0010D8AD001014AE00106C2B02204D
:10062000EC1B00203421002038AE001054AE001026
:1006300074AE0010A0AE00107C2B02206E2B0220A6
:10064000C8AE0010E4AE0010F8AE001010AF0010FD
:1006500024AF0010772B022044AF00109A9999BE66
:10066000752B02209A99993ECC10002030B585B0A8
:1006700003F008FB02E00A2000F0A8FF03F04AFDA7
:100680000028F8D009F038FC9620400000F09EFFCA
:1006900009F055FB09F036FB09F03DFB09F0D0FBF2
:1006A0000A2003F0F3FA214C200003F0FDFA204861
:1006B00003F0FAFA200003F0F7FA1E4803F0F4FA08
:1006C0001D4803F0F1FA1D4803F0EEFA1C4803F050
:1006D000EBFA1C4803F0E8FA002303930293802509
:1006E0002D011949194803AB0193032300930023FB
:1006F0002A0008F029F904001549164802AB0193B5
:100700000223009300232A0008F01EF9012C06D1D1
:10071000012804D108F074F9002005B030BD0E485E
:1007200003F0C2FA01204042F7E7C0465CAF001078
:1007300084AF0010A4AF0010B8AF0010D0AF00100D
:1007400074AE0010A0AE0010F4AF0010D50200107F
:1007500000B000107D03001008B0001010B5830039
:10076000084A9A1814684022544080322240064CAD
:10077000A44663441A60C000044B9C466044416038
:1007800010BDC04604C0014004D0014000400140FB
:1007900080000C4B9C46604400290ED00823002AA0
:1007A0000DD004221343026853400C2213408022D0
:1007B000520194466044036070470023EFE7002233
:1007C000F0E7C04604C0014010B501238340D022A9
:1007D0001206936293610521FFF7C0FF10BD000070
:1007E00010B58023DB05186803051B0D0B4A9342E7
:1007F00007D10B4B034080229201934207D1000F97
:1008000010BD084B084A0948132103F0C5F8084BEE
:10081000054A0648142103F0BFF8C0462709000026
:1008200000F0FF0F04B100105CCD001028B10010E3
:100830006CB100100FB400B583B0084803F034FA6F
:10084000049B002B07D005A90191180003F03CFA86
:10085000034803F029FA012003F054F880B1001096
:10086000C4AE001010B50148FFF7E4FF90B10010CE
:10087000EFF3108072B6034B1B68002BFBD0BFF365
:100880005F8F70472C0100D0BFF35F8F024B0022B7
:100890001A6080F3108870472C0100D0F8B506006C
:1008A0000C001500FFF7E4FFE308F718F15C0722DE
:1008B0002240012393400B4205D1DBB20B433B7036
:1008C000FFF7E2FFF8BD21002800FFF7B3FFF0B506
:1008D00083B00600019114001F00FFF7C9FF00E07C
:1008E0000134BC420CD8E308F518F35C0721214021
:1008F00001228A401A42F3D1D2B21A432A7001E08F
:1009000001246442FFF7C0FF002C02DB200003B08B
:10091000F0BD019B002BF9D00898FFF78BFF00007A
:10092000054A1078431CDBB21370172B02D9130051
:1009300010221A707047C046E80B002010B5010065
:10094000024A034B1800FFF7A9FF10BDA0B1001029
:10095000BC1B002010B582B00100054C054B009374
:100960001F2318222000FFF7B2FF02B010BDC046BF
:10097000BC1B0020C0B10010002307E0054A9A18F4
:100980009200BFF35F8F0021116001331F2BF5D957
:100990007047C04640000034074B9B681030800011
:1009A0001950BFF35F8FBFF35F8F044B00211960B5
:1009B00082F310887047C04600ED00E0240100D0AB
:1009C0000048704700E400E010B5FFF7F9FF00238E
:1009D00002E0034A04C00133072BFAD910BDC04618
:1009E0008080808010B50388DA0A1C2A05D15B0557
:1009F0005B1502335B00C01810BD034B034A8E2108
:100A00000348490002F0C8FFDCB1001098CD001087
:100A1000F4B1001010B5091A0B1F0A4A88180A4AC7
:100A2000904208D8C90706D45B105B055B0D0748E8
:100A3000184380B210BD064B064A8721064849007C
:100A400002F0AAFFFC070000FE0F000000E0FFFF1D
:100A500038B200108CCD0010F4B100100123834097
:100A6000034A10681840431E9841C0B27047C04600
:100A700000E100E0002A05D0044BC022520099504A
:100A800019607047014A8023D150FAE700E100E085
:100A900010B50A001F230340012199404009FFF7C8
:100AA000E9FF10BD01238340014A13607047C0462F
:100AB00000E200E0024B9B6810308000C058704795
:100AC00000ED00E010B5FFF7F5FF044BC31A00205E
:100AD0002F229A424041C0B210BDC046EC0B00200C
:100AE00070B504000D00EFF3108672B60C4B1B6856
:100AF000002BFBD0BFF35F8F2000FFF7DBFF094B1C
:100B0000984201D0A84205D1320029002000FFF709
:100B100043FF70BD044B054A0548ED2102F03CFF40
:100B2000240100D0C101001068B20010C0CD001037
:100B3000F4B10010F0B5DE4657464E464546E0B5E6
:100B400089B0814601911500EFF3108B72B66F4B9F
:100B50001B68002BFBD0BFF35F8F6D4B00269E57A9
:100B6000002E40DB7400A419A4006A482418062251
:100B7000A256674B1A70684B9A684B4610339B001D
:100B8000D35898461B1A2F2B3BD9644B984531D12B
:100B900005AF634B3B80634973009A469819800008
:100BA0005C4B984640440230FFF734FF78805E4B40
:100BB000BB80FF23BB71FD71019B0793330053443E
:100BC0009B00434407CF07C301231C43A0465A465A
:100BD00041464846FFF7E0FE09B0F0BCBB46B246CE
:100BE000A946A046F0BD514B514ABE21514849008B
:100BF00002F0D2FE504B4E4A84214E48FF3102F0A3
:100C0000CBFE012342469A439246101A0C2101F072
:100C1000F9F800290FD153460027DA79AA4212D9F0
:100C20000621595600290DDB4A0052189200394915
:100C30001F008B18F1E7414B3D4ACA213D4849004E
:100C400002F0AAFE1F00002F2ED005AB3C4A1A80EE
:100C5000813A5A800623FB560293002B17DA394853
:100C600005AB9A469880029A9A71DD71019A0792B3
:100C7000381D2100FFF7CEFEB880BE71254B7200F3
:100C8000921992009B18524613CA13C39FE7381D4E
:100C9000FFF7A8FE01007000801980001D4BC018EE
:100CA0000430FFF7B7FEDBE705AF1D4B3B801D4966
:100CB000730002939B199B00164A90461A00424407
:100CC0000392901CFFF7A6FE7880039A101D5146F0
:100CD000FFF7A0FEB8801C4B52464146521A5241C3
:100CE00053431B0DBB71FD71019A0792029B9B1927
:100CF0009B00434407CF07C3114B52461380813BEF
:100D0000538001231C43A04661E7C046240100D064
:100D1000782B0220EC0B002000ED00E0C101001058
:100D200000A1FFFF1C0C002001BDFFFFA0B20010BE
:100D3000A8CD0010F4B10010C8B20010F0B200103D
:100D40000148000001BD0000AAAA000070B505001E
:100D50000C00FFF735FEAB089B00C2181168032397
:100D60002B40DB00FF20984081439C4021431160D1
:100D700070BD0000F8B5012202432C4BD31A2F2B73
:100D800028D8EFF30583002B2AD0EFF3108472B636
:100D9000274909680029FBD0BFF35F8F234D254900
:100DA0000600761B76417143090D4DB222498968D0
:100DB0009B00C958914219D00021032930D81B4B00
:100DC0004A00521892009B189B795BB2AB421DD02F
:100DD0000131F2E7194B1A4A1A481B4902F0DCFDAF
:100DE0001A4B174A17481A4902F0D6FD124A926860
:100DF0001849D150184B1A7882711D70BFF35F8F5C
:100E00000B4B00221A6084F31088F8BD074B4A0090
:100E10005618B6009E19FF27B771104AB280E9E74D
:100E20000F4B074A07480F4902F0B6FDEC0B0020B4
:100E3000240100D0AAAA000000ED00E074B3001065
:100E400070CD0010F4B100107F0200009CB30010C0
:100E500082020000C1010010782B022001BDFFFFBB
:100E6000A8B300109302000010B582B00100074C37
:100E7000074B0093052300222000FFF728FD0028E0
:100E800001DB1F23181A02B010BDC0467D2B0220C3
:100E9000B0B30010024B9C4661448900016070476A
:100EA0004000003410B50400FFF73AFD01002000B7
:100EB000FFF7F0FF01235B426360BFF35F8F10BD5C
:100EC00010B50400FFF72CFD01002000FFF7E2FF42
:100ED00001235B42636000232372BFF35F8F10BD69
:100EE00010B50D4C09E00D4B0D4A0E481A2102F0C9
:100EF00053FD2000FFF7D6FF08340B4B9C4209D26C
:100F00002368002BF5D0012BEDD12000FFF7D8FF8F
:100F10000C34F2E710BDC04610120020CCB3001014
:100F200000CE0010ECB3001020120020034B9C46B2
:100F3000614489000160BFF35F8F70474000003457
:100F400010B504000120FFF705FD01002000FFF7A8
:100F5000EDFF10BD30B5846A151B0B1D9B001B589F
:100F60001B1B9D4204D3046A01238B40234202D100
:100F7000043189000A5030BD000408437047000066
:100F8000F0B5DE4657464E464546E0B587B0EFF32E
:100F9000058303221A409246AE4B9200D7583B7805
:100FA000534507D10123524693409946AA4B4A46DE
:100FB0001A6025E1A94BAA4AAA48922102F0ECFC4A
:100FC0007A6973009B19DB009046984443469C68FD
:100FD000DD68A54800F0BCFB001BA941002900DA30
:100FE00016E1002D74DB43461B699B469F4B9B45D6
:100FF0004FD00823F85E4346598889B2FFF7BCFFFB
:1010000043465969D847029003910299039A0B000D
:10101000100013435CD013000A00002847DAA41A1A
:101020009D41009401954346009C019D9C60DD60BC
:101030000021595E002900DAEAE078694B005B186C
:10104000DB00C3189A68DB68A41A9D41002D00DA02
:10105000DEE039813D000835844604912A00059779
:10106000B346009E019F049B002B2ADB0023D45E25
:1010700063001B19DB0063449C68DD6830003900A5
:10108000001BA94100291CDB1A000021595E0491B4
:10109000E9E743465B699B461B6958469847002829
:1010A00016D05B461A685B6802920393ADE76E4800
:1010B00000F04EFB029B039C1B184C4100930194D3
:1010C000B1E70499059F5E464346198016809FE06C
:1010D000434600229B5E3B813A69EFF3108372B670
:1010E00011680029FCD0BFF35F8F02217A5E414670
:1010F0000A807E803A69BFF35F8F0021116083F31D
:10110000108885E03969EFF3108372B60A68002A07
:10111000FCD0BFF35F8FB88800B201225242BA8080
:101120003A69BFF35F8F0021116083F310880500D7
:10113000BC461CE0049300229A5E002A0EDB049B4E
:101140000021595E4B005B18DB0063449868D96846
:1011500034003D00241A8D41002DEBDA04995D46E0
:10116000009B9C4644460D800023E55E2280002DB6
:1011700012DB634658696C006419E4000419A66820
:10118000E7686146083108229A5EAB4604916346DF
:101190000093A0468446D0E767463EE00023BB713B
:1011A000390008310823F85E0EE001246442E51797
:1011B0009460D56008243B5F834204D00E800824ED
:1011C0003B5F138038813000431C29D07C69430089
:1011D0001B18DB00E218E65E53881BB2002BE4DB31
:1011E0001100F0E722002B0051461F48FFF7B2FE26
:1011F0001D4800F0ADFA241A8D41002D22DC1FD0CD
:10120000194B4A465A630823FE5E002E00DBD7E6E0
:10121000BB881BB2002B00DB74E7BB79002BBDD170
:101220000823FA5E002A0DDB796953009B18DB0066
:10123000CB189C68DD68631CD4D16B1CD8D0D1E777
:10124000002CDDD040BF07B0F0BCBB46B246A9467B
:10125000A046F0BD582500203C7005407CB400102D
:101260002CCE0010A8B4001000400540810F0010E3
:1012700070B504000D0011000126AE400662280082
:10128000FFF72EFC01212800FFF702FC024B9C46D1
:101290006444266070BDC04638200000F8B5CE46D4
:1012A000474680B50600894690461F00C160FFF79B
:1012B00037FB154B9C4660448000306143463370D9
:1012C000BBB27381D0221206127872700122524290
:1012D0003281B2809B187380002406E0621E73691D
:1012E00065002D19ED005A530134BC42F6D3074B6B
:1012F00042469200D650064A41464846FFF7B8FF9C
:10130000C0BCB946B046F8BD4000003458250020A6
:10131000810F001010B5084B1A68EFF3108172B6F8
:101320001368002BFCD0BFF35F8F034805F086FDE8
:101330000020002110BDC046102A002010B5064B29
:101340001B69002B01D0044810BD044B044A05481A
:10135000652102F021FBC046340C0020E4B40010EB
:1013600014CE0010A8B40010F8B504000569EFF31E
:10137000108072B629680029FCD0BFF35F8F02216C
:10138000665E656971008919C9006D18002E02DB5F
:101390000027E95F61802169BFF35F8F00270F603D
:1013A00080F31088002E2CDB06992961079969616A
:1013B000AA60EB606B8801335B04590C002B00D1F1
:1013C000012169803000FFF7D7FD2169EFF3108319
:1013D00072B60A68002AFCD0BFF35F8FA2882A8009
:1013E000A6802269BFF35F8F0021116083F310880C
:1013F000E368217801228A4003498C4663441A60DD
:10140000F8BD01204042FBE73C20000070B582B0EF
:10141000060014001D0008AB1B78002B07D100F05C
:10142000C9F922002B00121A8B41002B0ADB079B03
:101430000193069B009322002B003000FFF794FFDE
:1014400002B070BD0020FBE7F0B5C64600B584B021
:101450000500884616001F000AAB1C78FFF76EFFD8
:101460000294019700962A004346FFF7CFFF04B08D
:1014700080BCB846F0BD000030B504000A144389B2
:101480009A422EDA406953009B18DB00C318256985
:10149000EFF3108272B628680028FCD0BFF35F8F8C
:1014A000588885B20904090C884212D000202369AB
:1014B000BFF35F8F0021196082F31088002811D0DC
:1014C000E368217801228A4007498C4663441A6008
:1014D00008E00649294389B259800123A3710120FC
:1014E000E5E7002030BDC0463C2000000080FFFF43
:1014F00010B50400FFF722FF2100FFF7BDFF10BD6C
:1015000040787047F0B583B006000F00EFF3058315
:10151000002B1AD196246442E517A4197D418D420F
:1015200002D803D1844201D90024002500F042F9F9
:1015300022002B00121A8B41002B0BDC08D030004C
:10154000390000F049F903B0F0BD1348FFF772F914
:10155000002AF4D0114A0023009320002900FFF74D
:1015600073FF00280DDAEAE70D4B1A68EFF31081DC
:1015700072B61368002BFCD0BFF35F8F084805F0EC
:101580000DFC084B5B6A9D42EED80649896AA14270
:10159000D5D29D42D3D1E7E708B50010151300104E
:1015A000102A00200040054070B504000D0000F036
:1015B00001F900196941002902DBFFF7A3FF70BDA3
:1015C000012040420049F8E7FFFFFF7F10B5FA22F3
:1015D00092000023002100F0ABFFFFF7E5FF10BDF4
:1015E000F0B5CE46474680B583B005000C00EFF35A
:1015F0000583002B15D03F4B5B6A8B4209D33D4AD4
:10160000926A82420BD28B4201D0012002E000207C
:1016100000E0002003B0C0BCB946B046F0BD0120D8
:10162000F8E7FFF78BFEC3689946037898462E00CB
:101630002700484600F08CF802000B00B61A9F41C4
:10164000434604339B004A469B581B1A0022BA4269
:101650000FDC0CD020BF274B5B6A9C422DD8254A5B
:10166000926AAA422BD29C4225D00120D2E7B342F3
:10167000F0D9214A0023009328002100FFF7E4FE5F
:1016800000281EDD1B4B5B6A9C4205D8194A926AF2
:10169000AA4202D29C4200D120BFFFF729FF154B7E
:1016A0005B6A9C4221D8134A926AAA421FD29C428A
:1016B00019D00120AEE70020ACE70020AAE7012006
:1016C000A8E70C4B5B6A9C4209D80A4A926AAA4274
:1016D00007D29C4201D001209CE700209AE700201D
:1016E00098E7012096E7002094E7002092E7012088
:1016F00090E7C046004005401513001000487047B1
:101700000040054010B50B4B1B69002B04D00A4864
:101710000A21FFF7BFFB10BDFFF7F0FF0400032114
:1017200000F00CF80348102303222100FFF7B6FD58
:10173000EDE7C046340C0020102A002010B5024A04
:101740000248FFF7ABF810BD58B50010C01B0020D1
:101750000200436A906A1900536A9942FAD17047AD
:10176000416A00E0416A9942FCD300E0416A994233
:1017700002D1816A9142F9D37047F0B5C64600B5EF
:10178000804614001D00FFF7E3FF06000F00220053
:101790002B0092197B41994202D804D1904202D980
:1017A00001225242D3174046FFF7DAFF80BCB84609
:1017B000F0BD000010B50248FFF7CAFF10BDC046DB
:1017C0000040054010B502000B000248FFF7D5FFAE
:1017D00010BDC0460040054010B502000B00024895
:1017E000FFF7BEFF10BDC04600400540F8B5D64625
:1017F000474680B506000D0017009846440024189F
:10180000A400294B9C4664446368089A934200D222
:101810006260331FDBB29A46012B2ED9802212015F
:10182000C0239B01E3181A60204BB200D158002955
:1018300007D0586900F0E6FA013043001B18033B5B
:10184000FDD27F0123685F40E0233B4080225201AC
:10185000A21813605346012B1AD980239B01E31869
:10186000802212011A60089B6360104BB60042464A
:10187000F250C0BCBA46B046F8BD012DCED103220D
:10188000C0239B01E3181A60A368DB07FCD5D8E7E7
:101890002168694003230B401360A3680122AA401A
:1018A0001A42FAD0D9E7C04600800040C41B00208D
:1018B000F0B583B005000E0017001800089900F07D
:1018C000A1FA0300089A140200943A00310028009B
:1018D000FFF78CFF03B0F0BD10B582B08024640028
:1018E0000094FFF783FF02B010BD0000014B8000A1
:1018F000C0587047C41B0020F0B5C64600B50400B0
:101900000E0017001D00374800F07CFA8046364B69
:10191000FA18364B9A4239D80100380000F072FAB2
:101920000200103A98235B009A4235D86B1E062BB2
:1019300038D8069B013B062B34D83F09474537D39F
:101940002D04069B1B031D432368002B36DB284B0D
:101950009C4244D00C2201239340264A1360264A1D
:101960001360264A1268190091430A1EF9D12660B5
:10197000A060234BE31821321A602268002AFCDAA7
:10198000E56008221A6080BCB846F0BD1D4B1E4AB7
:101990001E48112102F000F81D4B1B4A1B4819215B
:1019A00001F0FAFF1B4B184A18481C2101F0F4FF04
:1019B000194B154A1548232101F0EEFF22683F23F9
:1019C0001340B342C3D1A3681B051B0D8342BED194
:1019D000E368EE22D2021340AB42B8D1D3E70D2226
:1019E000B9E7C046001BB70080E84BD380F8A932A6
:1019F00000C0024000E0004000F0004008C000408D
:101A0000043000007CB5001050CE0010CCB50010A2
:101A100010B600102CB6001078B60010024B1A68F1
:101A2000024B5A607047C0462C21002000800540C0
:101A300010B5174B8022D2051A60164B164A1A6051
:101A400000290AD0154BE022D2041A60002809D1DF
:101A5000124B802212061A6010BD0D4BE022D204F8
:101A60001A60F3E743011B1A9B00181800010C4B86
:101A7000186080235B04984202D3094B094A1A601C
:101A8000FFF7CCFF054B8022D2051A60E4E7C04681
:101A900000B0054008200140FCFF010000A0054007
:101AA0002C210020FFFFFF0010B5030010000C4A9E
:101AB0008024E4051460002B0DD001221343094A51
:101AC000094CD461094C5C4014625162936200215C
:101AD000FFF7AEFF10BD034B0022DA61F7E7C04607
:101AE00000B0054000800540D3C007B02D3FF84F3F
:101AF00080239B000B43014AD3627047008005405E
:101B000010B5010018231B8814221088984710BDB7
:101B100010B5010018231B8816221088984710BDA5
:101B2000F0B5C64600B507000E0000250123984613
:101B300000E00135B5420AD2AC003C192068FFF73D
:101B4000DFFF20600028F4D100239846F1E74046EB
:101B500080BCB846F0BD000070B504000D0006481A
:101B6000FFF7CEFF0300002C03DB0120A04029007B
:101B700098470020FBE7C04655420000074BAA22C9
:101B800012011A608D225200DA60054B054A1A6074
:101B9000024B5B68002BFBDA7047C04600400240F6
:101BA0000060024000B0FA0010B5040001E008CC6B
:101BB0009847024B9C42FAD310BDC046A4AD00101A
:101BC0007047000010B50248FFF7EEFF10BDC04699
:101BD00068AD001010B50248FFF7E6FF10BDC04623
:101BE0009CAD0010054B064A1A60064B064A1A6067
:101BF000064B1A68044B9343FAD1704700E000404B
:101C0000BFCDFBFE00F00040FE7F3C0008C000405E
:101C1000044BDB6C002B03D1034B8022D2021A60F1
:101C20007047C046000011504C201150044B054A2B
:101C30001A60054B1B68DB43DB01FAD17047C046D5
:101C400000F00040FFFFFF0108C00040034B4022AE
:101C50009A675A671A67DA667047C04600F0014013
:101C600010B5FEF789FE10BD10B50C4A0C4BD21A08
:101C700092101400302A00D93022920009480849F5
:101C800000F042FD04E0084A064BA100CA500134AE
:101C90002F2CF8D9034B054A936010BDC0010010EA
:101CA0000001001000000020C101001000ED00E064
:101CB00070B50420FFF71AFE064900F0A3F80500EE
:101CC0000024002C00DD70BDE0B22900FFF710FFFA
:101CD0000134F6E740420F0030B583B0274B0022B5
:101CE0009A67FFF74BFF264B01221A60234B5B6C70
:101CF000012BFBD1234B03221A60204B9B6B012B42
:101D0000FBD10133009304331F4A01211F48FFF721
:101D1000F3FD052300931E4A01211E48FFF7ECFD49
:101D20001D4B002202210420FFF7D6FD1B4D2B0086
:101D3000002201210520FFF7CFFD194C23000022CE
:101D400000210720FFF7C8FD230000220021082002
:101D5000FFF7C2FD8023DB00009323000022002157
:101D60000920FFF7A5FD2B00002200210620FFF728
:101D7000B3FDFFF79DFF03B030BDC04600800040BB
:101D80003CB0004030B00040002F68590080024055
:101D9000008C864700C00240001BB7004059730703
:101DA000006CDC0201480421014B1847500C002054
:101DB000211B0010124A936F9B0815D29066D166C2
:101DC000002905D0FFE7FFE7FFE7516F106F70476D
:101DD00004B580210906C2175140002800D0C8432D
:101DE00008F072FF002104BDF0B5146E556E576FF8
:101DF000166FFFF7E3FF1466556657671667F0BD69
:101E0000000000D0114A936F9B0813D210665166F0
:101E1000002905D0FFE7FFE7FFE7516F106F70471C
:101E200004B5002801D00020C04308F04DFF002178
:101E300004BDC046F0B5146E556E576F166FFFF7B0
:101E4000E5FF1466556657671667F0BD000000D0C1
:101E500094464A4A926F9208624601D228E0C046F0
:101E6000F0B5464E346E756E776F366F00F020F821
:101E70009446424A14665566576716676246F0BD37
:101E800094463E4A926F9208624601D254E0C046A0
:101E9000F0B53A4E346E756E776F366F00F04CF8D1
:101EA0009446364A14665566576716676246F0BD13
:101EB000002B24DB11D000293EDA00B5C943404293
:101EC00000D1013100F038F8C943404200D101315E
:101ED000DB43524200D1013300BD002AEBD1002880
:101EE00001D1002905D00020C90FC90701D1C04385
:101EF000410800B508F0E0FE0022002300BD00B557
:101F000000290ADBDB43524200D1013300F014F810
:101F1000C943404200D1013100BDC943404200D114
:101F20000131DB43524200D1013300F005F8DB43BD
:101F3000524200D1013300BD002923D1002B18D11A
:101F4000002A0CD0BC460D4F38667A66002100236B
:101F5000FFE7FFE7FFE77A6F386F674670470028B3
:101F600001D00748010000B508F0A6FE00220023BA
:101F700000BD02000B00002000217047000000D0CF
:101F8000FFFFFFFF002B00D0BFE0130C28D1002A79
:101F9000E7D080B4114F39667A66FFE7FFE730B4C7
:101FA000040C7B6F396F1B0423433B667A66FFE7A3
:101FB000FFE7FFE7C04684B27B6F3D6F1B042343FE
:101FC0003B667A66FFE7FFE7C04600232C042D0C32
:101FD0007A6F386F00196941B0BC7047000000D0BB
:101FE000F0B594460025140E01D112020835140FE5
:101FF00001D112010435940F01D192000235D40FA2
:1020000001D152000135D40B0134254F7C66254C9B
:102010003C660E0C93B2FFE7FFE7FFE73C6F6643B9
:10202000360C7703BE467343DF0B5B04C01AB9411D
:10203000130C7343DB18C91ACE086643360CB6443A
:1020400093B273431F0F1B01C01AB941130C7343A2
:102050001F0B1B05C01AB941860D8F023E43664314
:10206000360C092D24DB520A7243801A7703460A84
:102070006643360C16235B1BDE40DF40BF19644607
:102080006643821B7046043506330100D940A840E0
:10209000C01900D30131A24206D20023F0BD0000D6
:1020A000000000D0FFFFFFFF121B0130F3D3F1E768
:1020B00009277F1BFE406446A2B27243801A00D2F9
:1020C0000139220C7243130C1204821A99410B003D
:1020D0007046043513370100F940A840801900D339
:1020E0000131002B02D1A2420AD2F0BD013000D34F
:1020F0000131121BFAD2013BF8D1A24200D2F0BD4D
:10210000013000D30131121BF7E7F0B51C0C00D0F1
:1021100080E00CB400251C0A04D11B02160E3343C8
:10212000120208351C0B04D11B01160F3343120198
:1021300004359C0B04D19B00960F3343920002356B
:10214000DC0B02D192185B4101351C0097186441E9
:102150000134464F7C66464C3C660E0CFFE7FFE7B9
:10216000FFE7C0463C6F6643360C7703BE4697B226
:102170007743C01B00D20139C01B00D201399FB286
:102180007743C91BC91B170C77437E04FF0B801BC9
:10219000B941CE086643360C0C2D33DBB644120B26
:1021A0001F053A431B0B97B27743C01B00D201397E
:1021B0009FB27743C91B170C77433E043F0C801B2B
:1021C000B941860D8F023E43664329277F1BFE409F
:1021D0000C3D7746AF40BF1930BCA2B2ABB27243E0
:1021E0007343801A9941220C7243130C1204801A13
:1021F000994102000B000137001BA941F9D2781E5A
:102200000021F0BD0C277F1BFE4077467F0BAF40BF
:10221000FF19E0E700245D1C07D0144F7D66396686
:10222000FFE7FFE7FFE7FFE73C6F95B29EB265432C
:102230006643401BB141150C1E0C654366433604D2
:102240002F0C3E432D04401BB141994204D20200A1
:102250000B0020000021F0BD01D19042F7D3801A7D
:10226000994101349942F2D3F6E70000000000D012
:10227000FFFFFFFF48404140484018B4134B5B68E4
:10228000019308BD18B4114B1B68019308BD944617
:102290000F4A926F920805D2624618B40B4BDB6866
:1022A000019308BD0A4AF0B5146E556E576F166F4C
:1022B0006246FFF7F2FF064A1466556657671667CF
:1022C000F0BD18B4014B9B68019308BD0C28002099
:1022D000000000D0FFB550404240504059404B40B4
:1022E000594000E0FFB5154F4C00640D03D0BC42CF
:1022F00004D10C0314D80020090D09055C00640DFD
:1023000003D0BC4204D11C030AD800221B0D1B05BC
:1023100001264B4009D44B4003D58B4200D1824269
:10232000FFBD9942FCD19042FFBD0B43DB18034334
:102330001343F5D0C9434918FFBD0000FF07000053
:1023400000B5FFF7CFFF804100BDC04600B5FFF7E5
:10235000C9FF01D9002000BD012000BD00B5FFF775
:10236000B9FF01D9002000BD012000BD00B5FFF775
:10237000B1FF804100BD012040054A00121804D879
:102380005A00121801D80020704701207047000041
:102390000021002805D17047C1174840401AFAD0E3
:1023A000C90713B5064B1B6898470CBC441CA240D8
:1023B0001005120B0349091B09051943114310BDF0
:1023C0000C2900201F04000010B54C00620D802372
:1023D000D218DB00D21A5B057E2A10DD9E3A13DA92
:1023E000CC170903490819435242D1406400013413
:1023F0001532202A05DAD0400843604310BD002082
:1024000010BD0846604310BDC80FC018013810BD8C
:1024100018B4024B5B6A019308BD00000C28002031
:1024200010B50148FEF706FA94B6001070B51323F4
:102430001C78012C12D0012C12DC214B214A936410
:102440002148FFF75DFB214B186070BD20491D4AF4
:102450009800815001331F2BF8D9ECE70023FAE7ED
:102460001C48FFF755FB05001B48FFF751FB0238DE
:1024700003789B007F2B09DD12488022290000F0A1
:1024800043F9022C08D0022CDADCD6E7134B144AAD
:102490001448332101F080FA134B1A88B5231B022C
:1024A0009A4209D1114B1A88114B9A4204D1114B0F
:1024B0001A88114B9A42E6D00020FEF7BBF9C046BD
:1024C000FD2400100C2800204C3300000C290020B3
:1024D000212400105344000053460000ACB6001005
:1024E0005CCE0010F0B6001054380000D838000060
:1024F000494600009C3800005946000007B5604678
:10250000002800D100BE01880A0A0230DF2AFAD171
:10251000C9B2820804D3028840880004104300E056
:102520000068024A5050039007BD00000C280020AC
:1025300051434343C9188C46110C83B24B4310B42A
:10254000040C614392B280B2504362431C041B0CE2
:10255000001910BC59411304120CC01851416144B8
:10256000704700004840414048400E4B5B681847A8
:102570000C4B1B6818470C4A936F9B0802D2094BFF
:10258000DB681847F0B5146E556E576F166FFFF77E
:10259000F6FF054A1466556657671667F0BD014B8E
:1025A0009B68184710290020000000D007B548405C
:1025B0004140484001E0C04607B54200120E03D03A
:1025C000FF2A03D1420218D8C00DC0054A00120EDE
:1025D00003D0FF2A03D14A020FD8C90DC905012231
:1025E000414005D4414001D5814207BD884207BD25
:1025F0000143491801D0C043001807BD00B5FFF7DB
:10260000DBFF804100BDC04600B5FFF7CFFF804132
:1026100000BD0000C10FC90700D54042002817D0F7
:10262000F44603B40B4B1B68984706BC81409E38A8
:102630004042803107D20B0607D04900490AC00545
:102640001043084360470130F8E7490A8902F5E77B
:10265000704700000C29002010B50148FEF7EAF889
:1026600030CC001070B513231E781848FFF750FACD
:102670000500012E11D0012E09DDAB1E1B789B0039
:102680007F2B1DDD12488022290000F03DF8114803
:10269000FFF736FA104B186070BD0D485422290020
:1026A00000F032F8002300E001331F2BE3D8084A82
:1026B0009C00A258002AF7D10849054AA150F3E727
:1026C000074B084A0848422101F066F953460000CA
:1026D000102900204C3300000C290020592600103E
:1026E00044B7001070CE001078B7001001480421E4
:1026F000014B1847600C0020211B0010014B1B6888
:1027000018470000600C0020014B5B681847000070
:10271000600C0020704710B5002802D00B68496893
:10272000984710BD0100002007E083001B185B00E4
:10273000501C08601078C01830380A681378303B95
:10274000DBB2092BF1D97047F0B5DE4657464E464D
:102750004546E0B583B093461F000C9B9A460D9CFE
:102760000E9B99460F9B9B0717D0B8460F0006009B
:1027700022E0551C4B4641462020B84701342A0030
:10278000B442F6D33D004F465C46019B9B46B146A2
:102790004646B84637002E000EE00192A346884612
:1027A0004E46B9460700EBE7013C551C5346185D01
:1027B00043463900B0472A00002CF5D135003E00D1
:1027C00047460F9B9B0711D4100003B0F0BCBB46DB
:1027D000B246A946A046F0BD541C4B4641462020B7
:1027E000B8472200531BB342F6D3EDE7B0464E463E
:1027F000B9462F005D46F5E7F0B5CE46474680B5B1
:1028000085B0944698460C9D0D9C0EAB1B7899465E
:10281000109A119B129EB7071CD4002B0CD0F707FF
:102820000AD54F46002F02D10C37374204D0013B66
:1028300002E030272F550134944201D21F2CF8D9E1
:10284000F70707D59C4205D21F2C03D830272F55F8
:102850000134F5E7F70612D5770505D4002C03D02F
:10286000944221D09C421FD00F9A102A2FD00F9A49
:10287000022A36D01F2C0AD830222A5501341F2CA8
:1028800005D84A46002A32D02D222A550134039613
:1028900002930194009543466246FFF755FF05B049
:1028A000C0BCB946B046F0BD621E012C17D00F9FC8
:1028B000102F0BD014000F9A102AD8D1B206D6D5FB
:1028C0001F2CD4D858222A550134D3E7023CB20633
:1028D000F1D41F2CEFD878222A550134CAE714000E
:1028E000C2E71F2CD3D860322A550134C2E77207E1
:1028F00003D52B222A550134C9E73207C7D5202238
:102900002A550134C3E7F0B5DE4657464E464546E4
:10291000E0B593B081468A46089209931CAB10CB70
:102920001B789B461E9D219B9846002C03D11023AB
:1029300042469A4390468023DB0046461E4042466C
:102940001A4218D0002C22D0002614E042469206EB
:102950001BD54121C918C9B20A39C9B2771C0AABC3
:10296000995529002000FFF74DFAAC4210D31F2FD4
:102970000ED83E00040029002000FFF743FACBB236
:10298000092BE3D83033D9B2E8E76121E2E7270029
:1029900043460693209B05931F9B049303955B4638
:1029A000029301970AAB0093099B089A5146484647
:1029B000FFF722FF13B0F0BCBB46B246A946A046C3
:1029C000F0BDF0B5DE4657464E464546E0B597B0F9
:1029D0000A900B910C929A46209B9946219F22AA1D
:1029E00013789B46249B0993259C289B98464A462E
:1029F0003A4302D11032934398468022D200454692
:102A00001540434613420AD04A463A4341D0002576
:102A10002E0053460D934D46099B9A4621E02E0009
:102A200053460D934D46099B9A461AE0424692063C
:102A300023D54122D218D2B20A3AD2B2731C994697
:102A40000EAB9A555246230028003900FFF718FABA
:102A5000BC4220D813D04B461F2B16D84E4605003B
:102A60000F005246230028003900FFF709FAD3B2BD
:102A7000092BDBD83033DAB2E0E76122DAE7AA4586
:102A8000E9D94E460D9B9A4608E04E460D9B9A4664
:102A900004E0002602E04E460D9B9A46434606930C
:102AA000279B0593269B0493099B03935B46029304
:102AB00001960EAB009353460C9A0B990A98FFF7B8
:102AC0009BFE17B0F0BCBB46B246A946A046F0BD7F
:102AD000F0B5DE4657464E464546E0B591B08046D5
:102AE00089460C929A461A9C1B9D22002B002000BE
:102AF0002900FFF740FC002800D0F2E001225242FA
:102B0000D54B20002900FFF731FC002800D0E8E079
:102B100001225242D14B20002900FFF711FC00286E
:102B200000D0DEE00022002320002900FFF708FC8F
:102B3000002800D0EAE0069407958023DB001E9A67
:102B40001A400D921E9A1A4201D106231C93069830
:102B5000079902000B000892099303000A00024340
:102B600000D1DFE0080D4005400DBD4EB446604485
:102B7000079E3203120B1E00BA4B13431F00FFF7D0
:102B80000BFCB94AB94BFFF79CFBB94AB94BFFF7AD
:102B900079FB089009910022B74B30003900FFF70C
:102BA0006CFBB64AB64BFFF78CFB02000B00089893
:102BB0000999FFF767FBFFF707FC8346FFF7ECFB7C
:102BC00006000F00AF4AB04BFFF77BFB0022AF4B74
:102BD000FFF758FBFFF7F8FB0890AD4AAD4B30000C
:102BE0003900FFF76EFB06000F000898FFF7D4FBD3
:102BF000A94AAA4BFFF765FB02000B003000390021
:102C0000FFF73BFB06000F0002000B00FFF759FB2C
:102C10000A900B91089BA24A94466344002100222B
:102C2000089109921B0509930023089332003B0089
:102C300030003900FFF726FB0E900F9132003B0069
:102C400000208021C905FFF718FB06000F000022B5
:102C5000944B0A980B99FFF71AFB0022924BFFF74F
:102C600011FB02000B000A980B99FFF710FB0022E2
:102C70008E4BFFF707FB02000B000A980B99FFF73A
:102C800006FB02000B0030003900FFF7FBFA0200E0
:102C90000B000E980F99FFF7FAFA0022714BFFF71D
:102CA000F1FA089A099BFFF70CFB06000F00089643
:102CB0000997069A079BFFF759FB00280BD00123C1
:102CC0005B429C46E3440022774B30003900FFF71B
:102CD000DEFA089009915B466333C62B45D804267B
:102CE00023E01E9B04931D9B03931C9B0293009463
:102CF000019553460C9A4946404600F0FBF811B046
:102D0000F0BCBB46B246A946A046F0BD0021002259
:102D100006910792069480231B069C46AC446346AA
:102D200007930AE700239B4604261E9B1B0528D514
:102D3000089A099B190011430FD05D4A5D4B069814
:102D40000799FFF70BFB00287AD000225A4B069810
:102D50000799FFF7F5FA002872D01C9B5B4506DD4A
:102D60005A469B1A013B1C9303E00526DDE700232E
:102D70001C938023DB001E9A1A431E920026002318
:102D80009B461D9B9E4265D29F1B02231E9A1A40A2
:102D90000A921E9A134202D0002E00D000275B46F2
:102DA000002B07D0089A099B06980799FFF76FFA3E
:102DB000069007910022002320002900FFF7C0FAA7
:102DC000002800D07CE03D4B1E9A134004930397EB
:102DD0001C9B0293069B079C0093019453460C9AFC
:102DE0004946404600F086F8002E00D187E71E9B3A
:102DF0009B0671D54525441C5346020049462800D0
:102E0000C0475A46D317D2185A4005230593013EAE
:102E10000496002303930A3302935B46DB0F01936E
:102E200000925346220049464046FFF76CFD0A9B3C
:102E3000002B00D163E7020047460C9E1D9D53E026
:102E40001C9B002B9DD00D9B002B9AD01C9B013B03
:102E50001C9396E7002798E7FFFFEF7FFFFFEFFF48
:102E600001FCFFFF0000F03FFB799F501344D33F6C
:102E7000B3C8608B288AC63F0000F83F61436F6388
:102E8000A787D23F71A379094F930A400000E03F22
:102E90001655B5BBB16B0240EF39FAFE422EE63F44
:102EA000FF03000000002C400000244000001840F8
:102EB0002D431CEBE2361A3F80842E41FFF7FFFFC3
:102EC000069C079D2200290080200006844661445C
:102ED0000B000692079376E765258CE7541C534652
:102EE00049462020B8472200931BAB42F6D310007E
:102EF00005E7C046F0B5DE4657464E464546E0B5C6
:102F000095B00690079193469946209F1E9A1F9B65
:102F100010001900FFF72FFA002831D10122524288
:102F2000BC4B1E981F99FFF70BFA002837D10122DE
:102F30005242B94B1E981F99FFF718FA00283DD14D
:102F40000022B64B1E981F99FFF710FA00284AD1AD
:102F50000022B34B1E981F99FFF7F2F9002842D1C7
:102F6000002200231E981F99FFF7EAF900284AD192
:102F700000239846229B5B0500D4B0E0002452E079
:102F8000229B0393219B029303230193A54B009360
:102F90004B465A4607990698FFF7D6FB08E1229B55
:102FA0000393219B0293042301939F4B00934B4671
:102FB0005A4607990698FFF7C7FBF9E0229B5B0783
:102FC0000ED59A4B042222990391219902910192E4
:102FD00000934B465A4607990698FFF7B5FBE7E082
:102FE000934B0322EFE7229B0493219B03930297C9
:102FF0001E9B1F9C009301944B465A4607990698C6
:10300000FFF766FDD4E01E9A1F9B00200021FFF70A
:1030100034F91E901F9101239846ABE70CAB302288
:103020001A55013F01341F2C01D8092FF6D81E98DC
:103030001F99FFF7C9F90500FFF7AEF902000B0071
:103040001E981F99FFF719F97A4BFA009B181A6816
:103050005B680A920B93FFF734F908900991FFF728
:10306000D7F90600FFF794F902000B0008980999B8
:10307000FFF703F90890099100226F4BFFF776F9EB
:1030800000282ED001363000FFF782F902000B0035
:103090000A980B99FFF75AF9002801D0013500264C
:1030A000002F2CD12800FFF777F902000B001E98A3
:1030B0001F99FFF7E2F806000F0000225E4BFFF7B2
:1030C0003FF9002846D100225B4B30003900FFF762
:1030D0004DF900283ED1EB073CD501353AE00627F3
:1030E0004CE70022544B08980999FFF729F900286A
:1030F000D6D1002E01D0F307D2D50136D0E7AA46AB
:103100001F2C11D8013F0A213000FEF77BFE651C01
:1031100030310CAB19550A213000FEF773FE092E31
:103120000ED906002C00EBE755461F2C0CD87B1E51
:10313000002F09D00CAA302111551F000134F4E7EB
:103140002B0055461C00F0E71F2C03D80CAB2E2299
:103150001A5501341F2C10D80A212800FEF72AFE28
:10316000661C30310CAB19550A212800FEF722FEEF
:10317000051E01D03400EDE734000323229A1340EA
:10318000012B1CD01F2C06D84346002B32D00CAB91
:103190002D221A550134229B0393219B0293019403
:1031A0000CAB00934B465A4607990698FFF7CCFAAA
:1031B00015B0F0BCBB46B246A946A046F0BD219B67
:1031C000002B13D04346002B02D10C3313420FD0F7
:1031D000219B013B2193190003E00CAB30221A55CF
:1031E00001348C42CED21F2CF7D9CBE72199F8E7D6
:1031F0002199F6E7229B5B0704D50CAB2B221A55CD
:103200000134C8E7229B1B07C5D50CAB20221A55F9
:103210000134C0E7FFFFEFFFFFFFEF7F65CDCD413A
:1032200065CDCDC164B8001068B8001058B8001062
:1032300060B8001080D000100000E03FF0B5DE461E
:1032400057464E464546E0B593B007008A4693463A
:103250001193002900D12CE3002508E06C1C5B468B
:103260002A005146B847119B013311932500119B49
:103270001878002800D11EE32528EFD101331193DF
:103280000023180020E00123184301321192012489
:1032900018E00223184301321192012412E00423A2
:1032A00018430132119201240CE008231843013223
:1032B0001192012406E010231843013211920124D7
:1032C00000E00024002C09D0119A1378203BD9B2D9
:1032D0001029F6D88B00C449CB589F468146119BD4
:1032E0001A781300303BDBB2092B10D92A2A13D0ED
:1032F0000B94119B1A782E2A20D0119A1378683BD0
:10330000D9B2122965D88B00B849CB589F4611A86D
:10331000FFF708FA0B90ECE71C9B1A1D1C921B6828
:10332000002B04DB0B93119B01331193E1E7022285
:103330000100114389465B420B93F4E78022D200DF
:103340004946114389465A1C11925A781300303B62
:10335000DBB2092B0BD92A2ACFD11C9B1A1D1C9238
:103360001C68002C08DB119B01331193C5E711A8E1
:10337000FFF7D8F90400C0E70024F4E780235B00DE
:1033800049460B43511C119151786C2901D0994643
:103390001FE0C0239B00494619438946023211921F
:1033A00017E0802349460B43511C1191517868293D
:1033B00001D099460DE0C02349461943894602329F
:1033C000119206E080235B00494619438946013289
:1033D0001192119B187867281CD8252800D25EE22C
:1033E0000300253BDAB2422A00D958E29300804A12
:1033F000D3589F4680239B00494619438946013292
:103400001192E6E780235B00494619438946013261
:103410001192DEE7782800D941E2692800D23EE225
:103420000200693AD2B201239340724A134210D18A
:103430001A0600D50CE25B0500D430E21C9B1A1D75
:103440001C921E68002C00D0BAE1012252423300C7
:1034500096E16F2842D005D8582841D0622803D180
:10346000022606E078283DD010234A469A4391462A
:103470000A26582838D0692805D0642803D00C22A1
:103480004B46934399464B465A0502D50122934336
:10349000994669282DD064282BD04B469A0500D533
:1034A000AAE0DA0500D5C2E05A0600D4D3E01C9A9F
:1034B000111D1C911168FF220A404B4605930B9B7E
:1034C0000493039402960023019300925B462A0022
:1034D00051463800FFF717FA05002AE00826C8E72A
:1034E0001026C6E71026C4E720224B461343994610
:1034F000C1E74B469A0520D4DA0551D45A0666D561
:103500001C9A111D1C911168FF220A40D017111836
:1035100041404B4605930B9B049303940296D20FB4
:10352000019200915B462A0051463800FFF7EBF903
:103530000500119B0133119399E61C9A073207216C
:103540008A43110008311C91116853689C46DB17AF
:103550000C930D930C9A0D9B100048400E900D9B00
:1035600061464B400F930E980F990C9A0D9B801A51
:1035700099410E900F914B4608930B9B079306942D
:103580000496002305936346DA0F0292009001919E
:103590005B462A0051463800FFF713FA0500C8E7DA
:1035A0001C9A111D1C911268D017111841400593E7
:1035B0000B9B049303940296D20F019200915B46F9
:1035C0002A0051463800FFF79EF90500B1E71A06B8
:1035D00005D51C9A111D1C910023D25E96E71C9AFA
:1035E000111D1C91126891E7E4CE001028CF001045
:1035F00074CF0010419000001C9A073207218A43C3
:10360000110008311C9108930B9B079306940496B4
:1036100000230593029353681268009201935B465E
:103620002A0051463800FFF7CCF9050081E71C9AC3
:10363000111D1C9105930B9B049303940296002388
:103640000193136800935B462A0051463800FFF748
:103650005AF905006DE71A0606D51C9A111D1C9132
:1036600012681204120C28E71C9A111D1C91126892
:1036700023E746281AD01C9B0733072293431A00DE
:1036800008321C924A4604920B9A039202941A68DA
:103690005B68009201935B462A0051463800FFF7B1
:1036A00029FC0500119B01331193E0E520234A46D4
:1036B0001A439146DFE7672801D0472804D18023C9
:1036C0001B014A461A439146452801D0472803D199
:1036D00020234A461A4391461C9B073307229343F3
:1036E0001A0008321C924A4604920B9A03920294E2
:1036F0001A685B68009201935B462A0051463800C5
:10370000FFF7E6F90500119B01331193AFE50223A2
:103710004E461E404A4613421ED001241C9B1A1DD1
:103720001C926A1C904618785B462A005146B8479E
:10373000002E14D1119B01331193454697E5551C7A
:103740005B4651462020B84723002A005C1C0B9999
:103750009942F4D81500E1E701232A00F6E7424632
:1037600006E0561C5B4651462020B8472C0032002C
:10377000651C0B9BA342F4D89046DBE701330A009B
:103780001978002902D0511E002AF7D19B1B8022F4
:10379000D2004946114088464946114202D0A34210
:1037A00000D92300022249461140109149460A429D
:1037B00008D02A00250099463B004746984626E057
:1037C000220044E6A1462A005146B2460E0006E019
:1037D000551C5B4631002020B84723002A005C1CA2
:1037E0000B999942F4D8150022004C4633005646F6
:1037F0009A4691462A0025003B004746984606E037
:103800001D000136541C5B465146C04722003078EB
:10381000002804D0002FF4D06B1E002DF0D115002D
:103820004B464746109A002A03D1119B013311934E
:103830001DE50B9E2A0006E0551C5B4651462020E4
:10384000B84723002A005C1C9E42F5D81500ECE71F
:1038500021234A461A4313001C9A111D1C91126819
:1038600005930823049303940833029300230193E0
:1038700000925B462A0051463800FFF744F80500E5
:10388000119B01331193F2E46C1C5B462A005146F4
:103890002520B847119B013311932500E7E46C1CE8
:1038A0005B462A005146B847119B0133119325000E
:1038B000DDE40A4FD0E45D450DD35B465A1E5B46FE
:1038C00051460020B847280013B0F0BCBB46B246B2
:1038D000A946A046F0BD2A00F1E7C0461527001012
:1038E00010B584B00C0002A902904C600124044879
:1038F000009313006242FFF7A1FC04B010BDC04664
:103900001727001000BEFDE703000A4A1268002ACC
:1039100008D0084A1068C318074A9A4206D3054AD5
:1039200013607047034A05491160F2E701204042E5
:10393000F7E7C046281D002000000420802B02204D
:1039400010B5030008001100002B05D1044B1A68C4
:103950005B6800F035F910BD01204042FBE7C0462E
:1039600048CE001010B5030008001400013B012BE5
:1039700006D801230022210000F0D8F8200010BD55
:1039800001204042FBE701204042704701204042B5
:10399000704710B5FFF7B6FF30B583B00D001900C2
:1039A000002A0BD0074B084C019200932B00020019
:1039B000200000F0A9F90120FFF7A4FF034B1A0033
:1039C000F1E7C04670B8001080B8001030CC00108D
:1039D00010B5EFF30583002B00D000BEFEF7F2F820
:1039E000034C01E008CC9847024B9C42FAD310BD2F
:1039F000A4AD0010B0AD001010B503000800110018
:103A00001B68984710BD0000F8B507000D001600B0
:103A1000437D002B02D0002400200CE0036811003D
:103A2000280098472DE03B7D10E03B6815480221B7
:103A30009847601C0134B44214DA002CF3DD2B19D2
:103A4000013B1B780D3B5A425341DBB22A5D0A2AE7
:103A5000F0D1002BEED1A042E7DA3B68211A2818FA
:103A60009847E2E7B04203DA3B68311A28189847D2
:103A7000002E06DDAD19013D2B780D3B5A42534116
:103A80003B75F8BDD0D0001070B505000368002B61
:103A900016D00C4B1C6805E0290004C92000FFF774
:103AA000B3FF2469002C09D02368002BF9D0064B02
:103AB0001B68002BF0D0A342F3D1EDE700232B606D
:103AC00070BDC046141D0020201D002070B50500EB
:103AD0000C000B68802B05D023685A1C2260E41868
:103AE000257170BD0800FFF7CFFFF5E710B5FDF7B2
:103AF00061FE074A002312184B41002B03DB0548E7
:103B000007F0FAF810BD01225242034BF7E7C04616
:103B100040420F0018120020FFFFFF7F10B502483F
:103B200007F0C2F810BDC04618120020F0B5CE460E
:103B3000474680B583B006000D0090461C00FFF795
:103B4000D5FF81466B1C05D0002C08D0184F194BAF
:103B50001C6807E0300006F0B7FE0500F4E7164FDA
:103B6000F5E72469002C17D02368002BF9D0134BFC
:103B70001B68002B01D0A342F3D12A0031002000A2
:103B8000B8474346002BECD06B46D91D0A230B7077
:103B900001222000B847E4E74B46002B05D128005E
:103BA00003B0C0BCB946B046F0BDFFF7B7FFF6E7BB
:103BB000093A0010141D0020F9390010201D0020C2
:103BC000F0B583B006000F0001920093164B1C68FD
:103BD00008E0A368002B04D0390030009847002883
:103BE00020DC2469002C06D0104B1D68002DF0D07D
:103BF000A542F6D1EDE700990A000D4B5B6A9942A8
:103C000009D80B49896A0198814209D29A4202D0A7
:103C10000220404206E001200021FDF7D3FDD5E758
:103C20000220404203B0F0BD141D0020201D0020E2
:103C3000004005400A4A136802E01A0010321B696E
:103C4000002B09D013688342F7D1002907D10369FB
:103C500013600023036102E0002900D01060704768
:103C6000141D002010B5064B1C6800E02469002CD0
:103C700004D06368002BF9D09847F7E710BDC04621
:103C8000141D002010B500F0D5F910BD10B582B09C
:103C900004006B46D81D0470012300220121FFF7A8
:103CA00045FF200002B010BD70B5050006F00CFE07
:103CB00004000123012201002800FFF737FFFFF76E
:103CC000D1FF200070BD0000F0B5A3B004000E00CD
:103CD000FFF70CFF050001AF0023019309483300F3
:103CE00022003900FFF7FCFD04003800FFF7CCFE8E
:103CF000FFF7B8FF002D02D1200023B0F0BDFFF781
:103D00000DFFF9E7CD3A00100FB400B583B004A958
:103D100001C90191FFF7D8FF03B008BC04B01847F0
:103D200070470000014B00221A707047792B022067
:103D30004B79FF2B0CD18B79002B0BD1CB79012B3D
:103D40000AD1082A0AD98A78054B1A70092000E09E
:103D5000002070470020FCE70020FAE70020F8E789
:103D6000792B02200120704710B5012927D1117944
:103D700053791B020B43134909788B4201D0002071
:103D80001EE05378012B03D0022B11D0002017E046
:103D90009178D3781B021943DB0506D5480A8A05BA
:103DA000D20F7F231940FDF7D7FE01204042F6E7EE
:103DB000642200210020FDF777FE012000E00120B1
:103DC00010BDC046792B0220004870479CD10010DE
:103DD00010B51400012910D15378012B0FD112799D
:103DE00063791B021343072B01D0002006E0054A2C
:103DF0009F33210001F054FB00E0012010BD0020A2
:103E0000FCE7C046F4D0001001230370004870475F
:103E1000D4D0001010B50A784B781B0213438A786F
:103E200012041A43CB781B0613439622D200934206
:103E300000D010BD0120002211004042FDF78CFE91
:103E4000024B1860024B19607047C046B41B00203B
:103E5000B81B002010B5FDF7ADFC0E4A0023121868
:103E60004B41002B12DB0C4806F046FF00280CD01B
:103E700001200021404201F0D9F9002001F078FC36
:103E80000028F5D1044806F00FFF10BD0122524270
:103E9000024BE8E740420F00142A0020FFFFFF7F9B
:103EA00010B5024B1878FCF7FDFD10BD7A2B0220EF
:103EB00070B5174B1B68002B20D0EFF3108272B641
:103EC000100019680029FCD0BFF35F8F10494A60C9
:103ED000104B00221A700B68BFF35F8F1A6080F3DB
:103EE0001088002400250C4B1878FCF7B7FD00283B
:103EF00008D1002400252000290070BDFA24A40068
:103F00000025F0E7044B1878FCF7CCFDF3E7C0463A
:103F1000502500207B2B02207A2B0220F0B585B0A3
:103F2000060014001D000CAB1F78FDF743FC2200B7
:103F30002B0012184B41002B09DB02970B990191C2
:103F40000A9900913000FDF761FA05B0F0BD012239
:103F50005242014BF1E7C046FFFFFF7FF0B5C64676
:103F600000B584B00500884616001F000AAB1C7817
:103F7000FDF7E4F90294019700962A004346FFF703
:103F8000CDFF04B080BCB846F0BD000010B582B0D3
:103F90002248002106F0A0FE00281ED1204B1B68FD
:103FA000002B18D0EFF3108172B608001A68002AAF
:103FB000FCD0BFF35F8F1A4A51601A490B78DBB20D
:103FC00001240C701268BFF35F8F0021116080F331
:103FD0001088002B17D002B010BD012000214042F4
:103FE00001F024F9002001F09BFB04000B4806F0CF
:103FF0005BFE002CEFD00C4B1B68002BEBD00B4A68
:1040000010689847E7E70A4A013300930023FA2033
:1040100080000021FFF7A2FFDDE7C046142A002040
:10402000502500207B2B0220B41B0020B81B002051
:10403000B13E001010B582B0D0231B061C68FDF7FE
:104040007DF9FDF75DFAA04230D1274B1B780021A6
:10405000002002F04FF8254B1B68002B2CD00120CC
:10406000FCF702FF224C20702249FF231840FCF786
:1040700037FD20780121FCF70BFD0520FCF722FD20
:10408000041E1DD00120FCF765FC01001A4B18002E
:10409000FCF74CFF194900220520FCF74BFD18489E
:1040A0000121FFF7C7FD200002B010BD154B164AD5
:1040B0001648C621FFF770FC0C48FCF7F3FECEE76C
:1040C0000D4808220021FEF719FB114A0123009335
:1040D0000023FA2080000021FFF740FFC043C40FF7
:1040E0000028E0DADBE7C046A8D90010142A002037
:1040F0007A2B02208D3F001050250020A13E001099
:10410000700C0020B0B80010CCD10010B8B800106E
:10411000B13E001010B5002001F0E6FA10BD00001D
:1041200070B505000C00FFF7F5FF002834D0002023
:1041300001F0F6FA002832D0FDF73CFB1B4A0023C1
:1041400012184B41002B19DB194806F0D5FD002849
:1041500028D0FFF7DFFF002804D0002001F0E0FAAC
:1041600000280FD101200021404201F05FF8032414
:1041700064420F4806F098FD200070BD01225242B3
:104180000C4BE1E722002900002001F0D5FA041EC3
:10419000EFD103246442ECE703246442ECE70324F8
:1041A0006442E9E703246442E6E7C04640420F0068
:1041B000142A0020FFFFFF7FF0B5C64600B58046F9
:1041C0000C00FDF7F7FA314A002312184B41002B7F
:1041D00007DB2F4806F090FD002806D180BCB846CA
:1041E000F0BD012252422B4BF3E7FFF793FF00286B
:1041F00049D1294B0020002118605960244806F05D
:1042000053FDEBE701200021404201F00FF80020B0
:1042100001F0AEFAFFF77EFF0028EFD0002001F09A
:1042200023FB002820D0A542E8DA661B002001F01D
:104230001BFB0200864200DC3200002AE2D043462B
:104240005919002001F0ECFA06000120002140423B
:1042500000F0ECFF002001F08BFAAD19FDF7AAFA8F
:104260000D4B18605960DEE7FDF7A4FA0A4B1E6893
:104270005F680A4A002392197B419942BED8D2D185
:104280009042D0D9BAE70025CDE7C04640420F00A2
:10429000142A0020FFFFFF7FA013002020A10700A9
:1042A0000048704748D2001000487047F4D1001011
:1042B00010B50400154B1B78002B0ED0002C11D12B
:1042C000134B144A5A80012301335B009BB2104800
:1042D000C02292001343038010BD0C48112100F04E
:1042E00025F8EBE7052C0ED80B4BA400E45800236F
:1042F000122BE9D8E15C0029E6D00133044A5800CA
:104300008152DBB2F4E70020E6E7C046242A02200F
:10431000EC1C002009040000DCD1001010B502489C
:1043200000F030F810BDC0460428002010B5002968
:1043300001D0002308E00F4B0F4A10483B31FFF734
:104340002BFB3732C25401334A1E9A420ED90F2B2F
:104350000CD85A080A4CA45C01229A4392001441DA
:104360000F222240092AECDC3032EBE7C018002390
:10437000037010BD44B900105CD200104CB900109D
:104380000428002070B588B0040004AD0D2200217F
:104390002800FEF7B3F90D2200216846FEF7AEF9BA
:1043A0004B232B700D226946280006F075FC002374
:1043B00004E05A1D69468A5CE2540133072BF8DD9C
:1043C00008B070BD70B582B07F230340C509274C8B
:1043D0005E0076197601A419A07068426841607089
:1043E0000020E0702183E276012D1ED0D800204A03
:1043F000944660441D4A5900491949015218906079
:104400001A4A59004919490152189268002111604D
:10441000002B10D1154A5B005B195B01D3180022F9
:104420005A60144ADA6002B070BDD800124A94464D
:104430006044A060E4E7012D0BD0591EC9000F4A6B
:1044400094466144094A5B005B195B01D2185160D4
:10445000E9E7591EC9000A4A94466144034A5B00D1
:104460005B195B01D2185160DDE7C0462C1D0020AE
:104470008400105000011050800010500C001050AB
:104480000800105010B5038B3F333F229343C27E88
:10449000022A08D008490A68C260D3180B60074A8C
:1044A000934202D810BD5B00F4E7054B054A06486D
:1044B0005221FFF771FAC04634250020FF0F10503B
:1044C0009CBB0010BCD20010E0BB0010F8B57F25EB
:1044D0000540C6096B009B195B010E4C1C19FFF7C8
:1044E00071FF002D00D1F8BD0A4B6D00AD196D01B3
:1044F0005D19298B2000FFF7C5FFEB7E9B06E9685D
:10450000054A4A4013438022120613436A68136027
:10451000E9E7C0462C1D00200000105010B5040033
:104520007F202040E409400000194001024BC018E0
:1045300000F026F910BDC0462C1D002010B5002843
:1045400004D101210520FCF7A3FA10BD034B044A56
:1045500098210448FF31FFF71FFAC0464CBC0010F9
:10456000ACD20010E0BB001010B5002805D100222D
:1045700000218020FFF7D2FF10BD034B034AA22188
:104580000348FF31FFF708FA4CBC00109CD2001022
:10459000E0BB0010024B80225202DA647047C04632
:1045A0000020115070B5041E27D100F0C7F8164D39
:1045B0000C23AB671549FF220520FCF7BBFA144812
:1045C00040220021FEF79AF8002240210020FFF748
:1045D0007DFF002240218020FFF778FF06F09CFB42
:1045E00001232B6480239B05EB649023094AEA5046
:1045F0002000FFF7CFFF012070BD074B074A642161
:104600000748FF31FFF7C8F900001150910400205E
:104610002C1D002010D001004CBC0010D0D2001086
:10462000E0BB0010044B1970002904D0034A90230A
:1046300080218902D1507047712B02200020115037
:104640000B785B0602D14B78052B00D070478A7837
:10465000014B1A60FAE7C0460000115010B5CA7845
:104660009207920F012A0AD088780B7949790902BA
:1046700019434905490DFFF729FF012010BD00200E
:10468000FCE710B506F048FB10BD000010B50400B3
:10469000080011001A00002C03D1FFF73FFF012092
:1046A00010BD034B034A812103488900FFF774F9C9
:1046B0004CBC00108CD20010E0BB001010B57F2362
:1046C000180008400B4205D1CB09012B0ED0022265
:1046D000074B9A66C909400040184001054BC018B5
:1046E00080221201002106F037FB10BD0122EFE706
:1046F000002011502C1D002010B57F221000084012
:104700000A4200D110BDC909400040184001044BC5
:10471000C0180023C3700022024906F01DFBF1E718
:104720002C1D0020FFF7FFFF04E00A780270013122
:1047300001301A00531E002AF7D1704710B58023AC
:104740005B040A4A13600A4A13600A4B1A68802302
:104750005B049343F9D18022520100210648FDF702
:10476000CDFF064B09225A6710BDC04600E000404D
:1047700000F0004008C00040000010500000115040
:1047800070B504000D001600837E002B17D1A682A1
:104790000023E3820133A3762561200006F0D4FADA
:1047A000002804D00C4A902380218902D150200097
:1047B00006F0C2FA00280AD00123237770BD817861
:1047C0000648FFF7A1FA200006F0AEFADFE7200066
:1047D00006F09AFAF2E7C0460020115038BD0010EA
:1047E00070B50500002408E09B1A5B01164A9B186F
:1047F000DB68280098470134E4B2144B1A78230090
:10480000511CA1420DDBA242EED9114B1B68620183
:104810009B18002BECD10F490F48104AFFF774FA90
:1048200010E00F4C542200212000FDF767FF201DEF
:104830001022FF21FDF762FF200014302022FF210B
:10484000FDF75CFF70BDC0464CD40010702B0220F9
:104850001815002018D4001070BD001025020000AB
:10486000C816002010B5FFF7BBFF00F065FE10BDB5
:1048700070B505000C001600486900F067FE63691A
:10488000320001212800984770BD0000F0B5DE46D7
:1048900057464E464546E0B583B082460139C8B218
:1048A000FFF702FD002803D043789946022B0CD075
:1048B00056495748574AFFF727FA002003B0F0BC83
:1048C000BB46B246A946A046F0BDC5796C1101228F
:1048D000514B1440240119781026B143214319701B
:1048E000AD112A405201C9B22024A1430A431A70D3
:1048F000060009368278C3781B02134383469B4423
:104900004B460193370066E0FB7899463A78BF182A
:1049100068E03E493E48414AFFF7F6F90020CDE7FE
:10492000009AD31A5B013E4E9E193369220039006A
:1049300050469847082801D9844216D20135EDB275
:10494000384B1B7800955A1CAA423EDBAB42E7D994
:10495000354B1B686E019E19002EE6D12B492C4861
:10496000324AFFF7D1F90020A8E73400009E0090FA
:104970004B46012B11D00020494681421BD9BB7800
:104980001B18DBB2244AD2181279FF2A0CD1224A12
:10499000D3181D710130C0B2EFE72169244A91425A
:1049A000E9D1019B9946E6E718491948214AFFF7E2
:1049B000ABF9002082E720482B00009C2200390040
:1049C00001F06EFCA446674400E02E00154B1B78F6
:1049D00001339E420FDC5F4515D27B780B2B93D0C1
:1049E000012399467A78042A93D15B46DA1B93B265
:1049F00000251C00A4E7852204490548D200FFF7E2
:104A000083F900205AE7012058E7C046ECD3001094
:104A100070BD0010D6030000C8160020F10300008E
:104A20004CD40010702B022018150020FA0300004F
:104A3000E559001019040000DC160020704770478B
:104A4000002070470020704770B505000C00CB783F
:104A500088780F2B53D89A002E498A589746FFF72B
:104A60001FFC021E05D012232100280000F018FDB3
:104A700046E0294929482A4AFFF746F900203FE045
:104A8000FFF7A2F9021E3CD08178C3781B020B43CA
:104A90002100280000F004FD32E0022B0CD0FFF7CB
:104AA000D1FF021E2FD09178D3781B020B43210037
:104AB000280000F0F5FC23E0FFF7F6FB021EF2D120
:104AC00015491648174AFFF71FF9002018E0237907
:104AD000617909021943FFF7EBFB021E15D0037839
:104AE0002100280000F0DCFC0AE0FFF7A9FF021E0D
:104AF0000DD003782100280000F0D2FC00E0002057
:104B000070BD0020FCE70020FAE70020F8E7002055
:104B1000F6E7C046ECD20010D4D3001070BD0010F0
:104B20003A04000061040000704770477047704706
:104B3000024B5878431E9841C0B27047C8160020F7
:104B4000024B18784007C00F7047C046C8160020B7
:104B5000034B1878FF38431E9841C0B27047C046D7
:104B6000A40C0020F8B505000F00FFF7F1FF061EAA
:104B700048D1002F21D02E4854220021FDF7BEFD40
:104B80002C4B00221A702C4C2000FCF78BF92B4B7D
:104B90001C602B4C2000FCF7D3F9143C200001F0E2
:104BA00019FF284B1C60284B002B04D02748FFF727
:104BB0002BF9274B1860002410E0E92225492648EC
:104BC0005200FFF7A1F81DE09B1A5B01234A9B18D6
:104BD0005B68002B10D098470134E4B21B4B1A7865
:104BE0002300511CA1420FDBA242EDD9184B1B68D8
:104BF00062019B18002BEBD1F8221649164852008F
:104C0000FFF782F83000F8BD154B1D703900280001
:104C1000FFF7C8FC061E03D02800FFF78FFCF1E762
:104C2000FC220C490C485200FFF76EF8EAE7C04638
:104C3000C8160020722B0220C01600201C1700206E
:104C40009C0C002020170020093E0010702B022031
:104C5000181500203CD4001070BD00104CD400107A
:104C6000A40C002070B50D00104B1E788B787022BC
:104C70001A420DD10E4B9978280001F0BBFA041EA0
:104C80000DD029003000FFF7E9FC0400200070BDC2
:104C900008490948094AFFF737F80024F6E70549AB
:104CA0000548074AFFF730F8F0E7C046A40C00209B
:104CB000C8160020A4D3001070BD00100B05000022
:104CC0000C050000F0B5D6464F464646C0B58146B5
:104CD0000C0017009846089B9A46002517E01849D3
:104CE0001848194AFFF710F800263000E0BCBA4611
:104CF000B146A846F0BD9D2211491248D200FFF7E7
:104D000003F8F2E7099A13702378E4180135AF42EB
:104D100014DD6378052BE2D1E1788907890F4145DD
:104D2000DDD121004846FFF79DFF061EE3D0A378A2
:104D3000DA09012AE6D052461370E5E70126D4E7E6
:104D4000B4D3001070BD0010E704000010B57F2040
:104D50000840C909400040183030044BC0180430E6
:104D6000034B196801F002FA10BDC046C8160020B6
:104D70001C17002010B57F200840C90940004018CA
:104D80003030044BC0180430034B196801F016FA98
:104D900010BDC046C81600201C170020F0B5C6463E
:104DA00000B582B001931A4800787F250D40CE09E6
:104DB000184C6F00E419A41930342479E4071DD489
:104DC000144C6F00E419A419303423790127BC4630
:104DD00067463B432371019BFFF758FC002813D122
:104DE0000C4B6D005B199B1930331A7901218A43F2
:104DF0001A711A7903318A431A7105E00649074886
:104E0000074AFEF781FF002002B080BCB846F0BD23
:104E1000A40C0020C816002094D3001070BD001010
:104E20003905000070B50A4B18787F240C40CD0975
:104E3000FFF744FC074A640013195B1930331A79F1
:104E400002210A431A711A7901210A431A7170BDAD
:104E5000A40C0020C816002070B50A4B18787F24D7
:104E60000C40CD09FFF748FC074A640013195B1991
:104E700030331A7902218A431A711A7901398A4327
:104E80001A7170BDA40C0020C81600207F220A40B1
:104E9000C909044B52009B185B18303318798007FE
:104EA000C00F7047C8160020F0B585B005000C0093
:104EB000002000F04BFB237860221A40602A1AD0B1
:104EC000402A20D02378DB06DB0E012B00D1D6E070
:104ED000022B00D116E1002B00D07CE1202A1CD04F
:104EE000002A00D07FE16378092B00D97DE19B0087
:104EF000C54AD3589F465532C449C5489200FEF76B
:104F000003FF002668E1C34800F020FB22000121D6
:104F10002800FEF75DFF06005EE123790F2B00D924
:104F20005DE1BD4AD3181B79BC4A1278934207D27F
:104F3000BB4A11685B01C918002909D100264BE161
:104F4000511C994200DA4CE19B1A5B01B549591892
:104F500022002800FFF78CFC06003DE1200000F055
:104F6000FBFAA1782800FFF7FFFAAB4A1378022179
:104F70000B43137001262FE1A74B5B7802AA063280
:104F8000137001232100280000F08AFA012623E192
:104F9000A678A14B5B78B3422CD09F4B5B78002B5B
:104FA0000CD19D4B5E70002E22D031002800FFF7FF
:104FB0006DFC061E12D0FFF7B7FD1BE00021280094
:104FC000FFF730FB2800FFF75CFB934FBB780193A2
:104FD0002800FFF705FC019BBB70E2E7C9228B4963
:104FE0008B489200FEF790FE8B4B00225A70F3E044
:104FF000FFF79BFD2100280000F03EFA0126EBE0C0
:1050000021002800FFF720FD0600E5E0A278E37804
:105010001B021343012B01D00026DDE07E4A1378EA
:1050200008210B4313702100280000F025FA012607
:10503000D2E0A278E3781B021343012B01D00026B3
:10504000CAE0754A137808218B43137021002800A9
:1050500000F012FA0126BFE06F4B1A78510992084E
:105060000223134001220A40134302AA063213808E
:1050700002232100280000F013FA0126ACE0237976
:105080000F2B00D9B3E0644AD3181B79634A127816
:10509000934223D2624A11685B01C918002900D1EA
:1050A000A7E022002800FFF7E3FB061E00D093E0F4
:1050B000237860221A4200D08EE063780A3B012BED
:1050C00000D989E0002000F041FA63780A2B0ED065
:1050D0002100280000F0D0F901267DE0511C994202
:1050E00000DA88E09B1A5B014E495918D9E702ABF8
:1050F0009A1D0023137001332100280000F0D0F91D
:10510000013669E021797F200840CE0970230B42E7
:1051100017D1414B40001B189B191B7D3F4800785D
:10512000834215D23E4806685B01F618002A19D062
:10513000002E62D0220031002800FFF799FB060004
:105140004AE032493248384AFEF7DEFD002643E0A5
:10515000461C9E4204DB1B1A5B01324E9E19E5E79A
:105160000026E3E76378012B10D0032B0ED0002B31
:1051700045D12800FFF78AFE02AB9A1D108002235A
:105180002100280000F08CF9012625E0A078E278C3
:105190001202024304D1012B19D02800FFF742FE6E
:1051A000002E2ED0220031002800FFF761FB0020E6
:1051B00000F0CCF9184B35229B5CDB07DE0F002B8F
:1051C0000AD12100280000F057F9012604E0280048
:1051D000FFF742FEE4E70026300005B0F0BD0026F0
:1051E000FAE70026F8E70026F6E70026F4E70026AF
:1051F000F2E70026F0E70026EEE70026ECE70026BF
:10520000EAE70126E8E7C04648D3001000D40010C2
:1052100070BD0010D13D0010C8160020702B022078
:10522000181500204CD400109503000030B585B04F
:10523000FFF78EFC002808D105B030BD01AC207806
:10524000FFF710FB2279634B9A70634B1C6862690D
:10525000EFF3108172B61368002BFCD0BFF35F8FA1
:10526000A16101A9200001F058FB6269A369BFF3A5
:105270005F8F0021116083F310880028DCD001AB20
:105280005B78082BE1D89B00544AD3589F4601AB6A
:105290001878FFF7E7FAFFF748FCD6E7504B1B7882
:1052A000002B2DD04E4A1378013BDBB213701378DC
:1052B000002BCAD1474B1A78012401210A431A70E6
:1052C0003422995CA1439954995C042081439954F8
:1052D0000132995CA1439954995C8143995401AB83
:1052E000187802A9FFF7E0FD0028AED101AC2078C4
:1052F0000021FFF7E3F920788021FFF7DFF9A4E729
:1053000038493948394AFEF7FFFC95E701AB19796E
:105310007F220A40CC092F4B50001B181B19303339
:1053200018790125A843187118790335A843187115
:10533000002A15D0274B52009B181B191B7D2C4AA5
:105340001278934213D22B4A12685B01D318002BB8
:1053500015D09C6901A84279039B0078A04774E7A7
:1053600001A84279039B007800F004F96DE7501C16
:10537000984204DB9B1A5B011F4A9B18E9E7A422B1
:10538000184919489200FEF7BFFC55E7114B1B78EE
:10539000DB0700D459E70F4B18780007C00FFFF761
:1053A000C5FB52E70B4B1B78DB0700D44DE7FFF73B
:1053B000BEFB4AE7029B002B00D146E703989847C3
:1053C00043E7044BDB78DB0700D43EE70298FFF7A6
:1053D00036FB3AE7C81600202017002070D30010D3
:1053E000722B02202CD4001070BD0010650200004A
:1053F000702B0220181500204CD4001010B500238B
:10540000CB56002B05DB802100230022FFF7C6FCD2
:1054100010BD0021F8E70000F8B50500144B9F8986
:10542000DE89BB1B9BB21C1C402B00D94024A4B2BC
:105430000F4B1B785BB2002B08DB0021B74213D067
:105440000C4A23002800FFF7A9FCF8BDB74209D099
:10545000074B9968402C09D806482200FDF754F9FB
:105460008021EBE78021E9E70022EAE70020ECE772
:10547000A81600206816002070B506000D00074C25
:1054800008222000FDF740F90023A360E381A381F7
:1054900029003000FFF7B2FF70BDC046A8160020FB
:1054A000F0B5C64600B580460C0016001D001F4B27
:1054B00008221F001800FDF727F9BE600023FB81BA
:1054C000A379E179090219430B1CA94200D92B1CCD
:1054D00099B2164A9381A279E3791B02134319D03A
:1054E000002901D0002E08D04046FFF795FF041E8A
:1054F0000AD0200080BCB846F0BD0D490D4872228C
:10550000FEF702FC0024F4E709490A487422FEF77A
:10551000FBFBEEE721004046FFF770FF041EE8D1D9
:10552000034904487622FEF7EFFBE2E7A8160020C5
:10553000A4D4001070BD001010B50348142200213F
:10554000FDF7DCF810BDC046A8160020014B18611D
:105550007047C046A816002010B50100044C082270
:105560002000FDF7D1F80023A360E381A38110BDE3
:10557000A816002070B505001C00C909314B1B7826
:10558000DB098B4216D0002C07D02F492F489D22D3
:10559000FEF7BAFB0024200070BD2A4C2100FFF763
:1055A0004FF82369002B03D0264A0321280098478F
:1055B0000124F0E7234B1B785BB2002B07DB214B68
:1055C000986800283CD022492200FDF79DF81D4A2A
:1055D000D389A1B25B189BB2D381916809199160FC
:1055E000D288934201D03F2C1FD8164B1B69002B49
:1055F00005D0144A02212800984700280BD01149F1
:105600002800FFF7FBFE041EC5D10F490F48C52235
:10561000FEF77AFBBFE700212800FFF74FF8802153
:105620002800FFF74BF80124B5E72800FFF7F4FE48
:10563000041EB0D104490548CD22FEF765FBAAE758
:105640000024A8E7A81600208CD4001070BD00101C
:105650006816002070B50500FFF76AFA002802D12D
:105660000024200070BDFFF76BFA041EF8D11C4B1C
:10567000C8226A439B18DB78002BF1D0C8266E4302
:105680001036174BF618300001F030F93F28E8D9F2
:10569000134BC8226A439B18D9780020FFF756FBAA
:1056A000002801D10400DCE7300001F01FF93F2899
:1056B0000DD9EA010B4BD218094BC82169435B187D
:1056C000D97840230020FFF769FB0400C9E7044BA9
:1056D000C8226A439B18D9780020FFF74BFBC0E72C
:1056E000A01500201C15002010B50400FFF720FABB
:1056F000002801D1002010BDFFF722FA002808D1B0
:10570000064BC82262439B181B79DB0703D5013087
:10571000F1E70020EFE70020EDE7C046A0150020EC
:1057200010B5C823434310330248181801F0ACF8F1
:1057300010BDC046A015002070B50400C82060430D
:105740000300103307481818074B9A4208D892B242
:1057500001F004F905002000FFF77CFF280070BD70
:10576000024AF5E7A0150020FEFF0000FFFF000041
:1057700070B50500FFF7DCF9002801D1002070BDED
:10578000FFF7DEF90028F9D1C8246C432034204B00
:10579000E4180434200001F077F8002801D100203B
:1057A000EDE71B4BC8226A439B1899780020FFF74E
:1057B000CDFA002801D10020E1E7EE014036154B7B
:1057C000F61840223100200001F0C8F8041E14D061
:1057D0000F4BC8226A439B189978030032000020BF
:1057E000FFF7DCFA002801D02000C8E70A490B487F
:1057F000D522FEF789FA0020C1E7054BC8226A438B
:105800009B1899780020FFF7B5FA0020B7E7C0464B
:10581000A01500201C150020D4D4001070BD00106D
:1058200070B50500C824444320340C4BE4180434FC
:105830000B4B9A420BD892B2200001F0C6F806003A
:10584000200001F021F83F2803D8300070BD054A40
:10585000F2E72800FFF78CFFF7E7C046A01500200D
:10586000FEFF0000FFFF000010B5C82358432030A2
:10587000024BC018043001F039F810BDA01500200B
:10588000F0B5CE46474680B583B02648C8220021F1
:10589000FCF734FF244B00221A700027002F04D09D
:1058A00003B0C0BCB946B046F0BD1E4EC8247C4310
:1058B0003519FF236B71E1235B02AB60002398462F
:1058C0002B736B730833AB732100383189192000B7
:1058D00010308019434600930133402200F096FFB8
:1058E00021007831891920002030801904300123EB
:1058F0000093402200F08AFF2300B8339946B14458
:105900004846FBF7CFFAC034A4192000FBF7CAFAC7
:105910004346EB614B462B622C6343466B63013776
:10592000FFB2BBE7A01500209C15002010B5002396
:10593000002B01D0012010BD19000D4AC82058438A
:105940001218106A146B002806D0094AC820584360
:1059500012180020D0611062002C06D0044AC82022
:10596000414352180021116351630133DBB2DFE779
:10597000A015002070B50024002C00D070BD2500BB
:10598000C8206043154BC01805220021FCF7B6FE65
:10599000134B1B78DB070FD5114B1B789B0713D5D7
:1059A000C820684320300D4BC0180430012101F09D
:1059B00030F80134E4B2DFE7C82060431030074B11
:1059C000C01801F007F8E7E7C82068432030034B10
:1059D000C018043000F0FEFFE2E7C046A01500202A
:1059E0009C150020F0B585B003904B79022B63D154
:1059F0008B79022B64D10027002F07D0002F0FD105
:105A00008B7833700C780C19092515E0C8237B437B
:105A10002C4E9E19B378002BF0D00137FFB2EBE784
:105A2000422229492948FF32FEF76EF9002544E059
:105A300023785D19ADB2E4186378242B01D1954227
:105A4000F6D9052B09D06378042B02D163790A2B90
:105A500018D03800FFF7FEFD2FE021000398FFF774
:105A600001F9002806D0A378737023785D19ADB2D0
:105A7000E418E8E7542214491448FF32FEF744F9C9
:105A800000251AE021784D19ADB26118B31C0193BD
:105A9000F31C0093022302220398FFF713F9002856
:105AA00002D00E35ADB2D4E7B12207490748520003
:105AB000FEF72AF9002500E00025280005B0F0BD1A
:105AC0000025FAE7A0150020C8D4001070BD001012
:105AD000F8B51400127860231340202B00D082E028
